:020000040800F2
:100000000804002001150008A5140008B114000818
:10001000B9140008C1140008C91400080000000049
:10002000000000000000000000000000D1140008E3
:10003000DD14000800000000E9140008F5140008B1
:100040000115000801150008011500080115000838
:100050000115000801150008011500080115000828
:100060000115000801150008011500080115000818
:100070000115000801150008011500080115000808
:1000800001150008011500080115000801150008F8
:1000900001150008011500080115000801150008E8
:1000A00001150008011500080115000801150008D8
:1000B00001150008011500080115000801150008C8
:1000C00001150008011500080115000801150008B8
:1000D00001150008011500080115000801150008A8
:1000E0000115000801150008011500080115000898
:1000F0000115000801150008011500080115000888
:100100000115000801150008011500080115000877
:10011000011500080115000880B487B000AF7860B1
:10012000396000237B6100233B610023FB600023D7
:100130007B617CE07B69012202FA03F33B613B684F
:100140001A683B691340FB60FA683B699A426BD1BD
:100150007B681A687B695B00194603238B40DB438D
:100160001A407B681A607B681A683B681B791946DD
:100170007B695B0001FA03F31A437B681A603B68F2
:100180001B79012B03D03B681B79022B34D17B6890
:100190009A687B695B00194603238B40DB431A4056
:1001A0007B689A607B689A683B685B7919467B69D3
:1001B0005B0001FA03F31A437B689A607B689B88B3
:1001C0009AB27B699BB2194601238B409BB2DB43F9
:1001D0009BB213409AB27B689A807B689B889AB2E4
:1001E0003B689B7919467B699BB201FA03F39BB28A
:1001F00013439AB27B689A807B68DA687B699BB20A
:100200005B00032101FA03F3DB431A407B68DA60E9
:100210007B68DA683B68DB7919467B695B0001FA29
:1002200003F31A437B68DA607B6901337B617B6986
:100230000F2B7FF67FAF1C37BD465DF8047B704700
:1002400080B483B000AF78607B684FF6FF721A60AD
:100250007B6800221A717B6800225A717B68002239
:100260009A717B680022DA710C37BD465DF8047B19
:10027000704700BF80B485B000AF78600B467B80CC
:100280000023FB737B681B8A9AB27B8813409BB266
:10029000002B02D00123FB7301E00023FB73FB7BE7
:1002A00018461437BD465DF8047B704780B485B0AE
:1002B00000AF78600B467B8013467B700023FB60A9
:1002C0000023BB607B787A8802F00702920093409B
:1002D000FB607B88DB089BB218467B88DB089BB2FF
:1002E0001A467B68083253F822207B8803F0070304
:1002F0009B0019460F238B40DB4302EA03017B6816
:1003000000F1080243F822107B88DB089BB21A46F2
:100310007B68083253F82220FB681343BB607B885C
:10032000DB089BB21A467B680832B96843F8221092
:100330001437BD465DF8047B704700BF80B483B0BE
:1003400000AF0346FB71044AFB7913600C37BD46CE
:100350005DF8047B704700BF20000E4280B586B078
:1003600000AF00237B604FF47013BB600C23FB6075
:1003700040233B6100237B613B1D184600F04CFF8E
:10038000012000F097FF4FF4805000F0EDFF0020B7
:1003900000F0B8FF402000F09DFF00F07BFF01203F
:1003A00000F068FF00BF012001F002F80346002BB7
:1003B000F9D000BF102000F0FBFF0346002BF9D05E
:1003C00000204FF4804100F0B5FF00F01BFC18370F
:1003D000BD4680BD80B582B000AF3F20012100F056
:1003E000B9FD3B461846FFF72BFF48F20E733B6002
:1003F00002233B713B4655481946FFF78DFE534893
:1004000001210B22FFF752FF504802210B22FFF778
:100410004DFF4E4803210B22FFF748FF4B480821B0
:100420000B22FFF743FF494809210B22FFF73EFF4C
:1004300046480A210B22FFF739FF44480F210B22BF
:10044000FFF734FF4FF638733B6002233B713B46A6
:100450003F481946FFF760FE3D4803210B22FFF796
:1004600025FF3B4804210B22FFF720FF38480521D8
:100470000B22FFF71BFF364808210B22FFF716FF60
:10048000334809210B22FFF711FF31480A210B22C3
:10049000FFF70CFF2E480B210B22FFF707FF2C481C
:1004A0000C210B22FFF702FF29480D210B22FFF739
:1004B000FDFE27480E210B22FFF7F8FE24480F21EE
:1004C0000B22FFF7F3FE40F6CF733B6002233B7134
:1004D0003B4620481946FFF71FFE1E4800210B220D
:1004E000FFF7E4FE1B4801210B22FFF7DFFE19484E
:1004F00002210B22FFF7DAFE164803210B22FFF739
:10050000D5FE144806210B22FFF7D0FE1148072123
:100510000B22FFF7CBFE0F4808210B22FFF7C6FE88
:100520000C4809210B22FFF7C1FE0A480A210B22C1
:10053000FFF7BCFE07480B210B22FFF7B7FE3F2059
:10054000002100F007FD0837BD4680BD00000240D5
:10055000000402400008024080B400AF0F4A0F4B75
:100560005B6A23F4204353620C4A0C4BDB6A23F48E
:100570002043D362094A094B5B6A09490978090398
:100580000B435362054A054BDB6A05494978090369
:100590000B43D362BD465DF8047B704700240040E6
:1005A0000400002080B487B000AFF8607B600B4689
:1005B000FB721346BB720023FB82FB681B78392B4E
:1005C0000FDC302B41DA2A2B1CD02A2B04DC202B09
:1005D00015D0252B31D040E02D2B23D02F2B25D02B
:1005E0003BE0B02B25D0B02B04DC6D2B12D06E2B52
:1005F00014D032E0B52B09D0FF2B22D02DE0002300
:10060000FB824AE04AF2DD03FB8246E046F28403C5
:10061000FB8242E04BF21023FB823EE042F21023C9
:10062000FB823AE04FF42043FB8236E0C023FB829A
:1006300033E04FF46C43FB822FE04FF43343FB82F3
:100640002BE04FF6DD73FB8227E0FB681B78303B25
:10065000284A32F81330FB821FE0FB681B785A2BC4
:100660000AD8FB681B78402B06D9FB681B78413BF6
:10067000214A32F81330FB82FB681B787A2B0BD8A7
:10068000FB681B78602B07D9FB681B78613B1A4A13
:1006900032F81330FB82FFE700BFFB7A002B03D058
:1006A000FB8A43F00203FB82BB7A002B03D0FB8A58
:1006B00043F02003FB820C237B7500233B7511E084
:1006C0003B7D7A681344F98A7A7D41FA02F2D2B20C
:1006D00002F00F02D2B21A707B7D043B7B753B7D2A
:1006E00001333B753B7D032BEAD91C37BD465DF8D2
:1006F000047B7047EC150008B815000880B584B07D
:1007000000AF7860084611461A460346FB700B4658
:10071000BB7013467B70F978BA7807F10C037868E0
:10072000FFF740FF7B78013B052B00F2328201A2EC
:1007300052F823F04D070008F7070008D108000819
:10074000790900082B0A0008CD0A0008894A894B5C
:100750005B6923F0405323F003035361854A854BC3
:10076000DB6923F0405323F00303D361814A814BBB
:100770005B6A23F0405323F0030353627D4A7D4BB1
:10078000DB6A23F0405323F00303D3627948794BAB
:100790005B693A7B02F00C0291063A7B02F003029D
:1007A0000A43134343617348724BDB697A7B02F05F
:1007B0000C0291067A7B02F003020A431343C361E1
:1007C0006C486C4B5B6ABA7B02F00C029106BA7BF8
:1007D00002F003020A43134343626648654BDB6A37
:1007E000FA7B02F00C029106FA7B02F003020A4344
:1007F0001343C362CEE15F4A5E4B5B6923F0406303
:1008000023F0FC0353615B4A5A4BDB6923F04063DE
:1008100023F0FC03D361574A564B5B6A23F04063D5
:1008200023F0FC035362534A524BDB6A23F04063CC
:1008300023F0FC03D3624F484E4B5B693A7B02F0D6
:100840000C0211063A7B02F00202920111433A7B3C
:1008500002F0010292000A43134343614548454BAD
:10086000DB697A7B02F00C0211067A7B02F002024D
:10087000920111437A7B02F0010292000A43134372
:10088000C3613C483B4B5B6ABA7B02F00C02110629
:10089000BA7B02F0020292011143BA7B02F001021C
:1008A00092000A43134343623248324BDB6AFA7BBD
:1008B00002F00C021106FA7B02F0020292011143CF
:1008C000FA7B02F0010292000A431343C36261E122
:1008D000284A284B5B6923F003235361254A254BA3
:1008E000DB6923F00323D361224A224B5B6A23F0A6
:1008F000032353621F4A1F4BDB6A23F00323D36297
:100900001C481C4B5B693A7B02F00C0291053A7B58
:1009100002F0030212020A43134343611548154BC8
:10092000DB697A7B02F00C0291057A7B02F003020C
:1009300012020A431343C3610E480E4B5B6ABA7B33
:1009400002F00C029105BA7B02F0030212020A4384
:10095000134343620748074BDB6AFA7B02F00C0241
:100960009105FA7B02F0030212020A431343C362A9
:1009700010E100BF00240040894A894B5B6923F4E1
:10098000401323F440635361854A854BDB6923F4AC
:10099000401323F44063D361814A814B5B6A23F4A3
:1009A000401323F4406353627D4A7D4BDB6A23F49A
:1009B000401323F44063D3627948794B5B693A7BF7
:1009C00002F00C0291043A7B02F0030292020A4305
:1009D000134343617248724BDB697A7B02F00C026D
:1009E00091047A7B02F0030292020A431343C3612B
:1009F0006B486B4B5B6ABA7B02F00C029104BA7BCA
:100A000002F0030292020A43134343626448644BB8
:100A1000DB6AFA7B02F00C029104FA7B02F003021B
:100A200092020A431343C362B4E05D4A5C4B5B69C4
:100A300023F4432353615A4A594BDB6923F443237C
:100A4000D361574A564B5B6A23F441235362544A9D
:100A5000534BDB6A23F44123D3625148504B5B690B
:100A60003A7B02F00C0211043A7B02F003021203FB
:100A70000A43134343614A48494BDB697A7B02F0DE
:100A80000C0211047A7B02F0030212030A4313439F
:100A9000C3614348424B5B6ABA7B02F00C0211040B
:100AA000BA7B02F0010212030A43134343623C483B
:100AB0003B4BDB6AFA7B02F00C021104FA7B02F07A
:100AC000010212030A431343C36263E0344A344B06
:100AD0005B6923F470335361314A314BDB6923F492
:100AE0007033D3612E4A2E4B5B6A23F4703353620A
:100AF0002B4A2B4BDB6A23F47033D3622848284BF4
:100B00005B693A7B02F00402D1033A7B02F00802EF
:100B1000520311433A7B920392B20A431343436157
:100B20001F481F4BDB697A7B02F00402D1037A7BFA
:100B300002F00802520311437A7B920392B20A43F5
:100B40001343C3611648164B5B6ABA7B02F004027A
:100B5000D103BA7B02F0080252031143BA7B02F0C0
:100B6000010292030A43134343620D480C4BDB6AB4
:100B7000FA7B02F00402D103FA7B02F0080252036E
:100B80001143FA7B02F0010292030A431343C3624A
:100B900000E000BFFFF7E0FC1037BD4680BD00BF9E
:100BA0000024004080B584B000AF78600123FB735F
:100BB00000BF042000F0FCFB0346002BF9D10BE042
:100BC000FB7B786800210022FFF798FD7B680133EA
:100BD0007B60FB7B0133FB737B681B78002B14BFAE
:100BE00001230023DAB2FB7B072B94BF01230023F0
:100BF000DBB21340DBB2002BE2D100F0CDFB1037AB
:100C0000BD4680BD80B582B000AF00237B6000BFD1
:100C1000042000F0CDFB0346002BF9D100237B60BC
:100C200009E0094A7B6804339B00134400225A60A0
:100C30007B6801337B607B680F2BF2D900F0ACFB43
:100C40000837BD4680BD00BF0024004080B58AB093
:100C500000AF78600B467B8013463B800023FB602F
:100C600000233B820023BB747B68002B00D1ACE0E7
:100C70007B683B620023FB7705E0FB7F0133FB775A
:100C80003B6A01333B623B6A1B78002BF5D17B68E2
:100C90003B627868FFF786FF0023BB6102E0BB6917
:100CA0000133BB613B884A4A02FB03F2BB699A42AB
:100CB000F5DC002387F8273080E0002387F8263012
:100CC00072E097F826300133FA7F93FBF2F102FBD2
:100CD00001F29B1A1A463B6A13441B783B7397F840
:100CE00026300233FA7F93FBF2F102FB01F29B1AEA
:100CF0001A463B6A13441B787B7397F826300333FC
:100D0000FA7F93FBF2F102FB01F29B1A1A463B6A4F
:100D100013441B78BB7397F826300433FA7F93FB98
:100D2000F2F102FB01F29B1A1A463B6A13441B784C
:100D3000FB7397F826300533FA7F93FBF2F102FB41
:100D400001F29B1A1A463B6A13441B783B7497F8CE
:100D500026300633FA7F93FBF2F102FB01F29B1A75
:100D60001A463B6A13441B787B74FFF74BFF07F16D
:100D70000C031846FFF716FF164B1B78DBB2002B4F
:100D800000D022E000237B6102E07B6901337B61BC
:100D90003B880F4A02FB03F27B699A42F5DC97F825
:100DA0002630013387F8263097F82620FB7F9A42B9
:100DB00087D397F82730013387F8273097F8273003
:100DC0009BB27A889A423FF678AF2837BD4680BDFD
:100DD000A08601000000002080B483B000AF03466D
:100DE000FB71054B00221A70034AFB7913700C3714
:100DF000BD465DF8047B70470238024080B485B080
:100E000000AF78600023FB60094B5B68FB60FB6808
:100E100023F46043FB60FA687B681343FB60044A79
:100E2000FB6853601437BD465DF8047B704700BF14
:100E30000038024080B483B000AF0346FB71044A1F
:100E4000FB7913600C37BD465DF8047B704700BF2B
:100E50000000474280B483B000AF0346FB71054BEE
:100E600000221A70034AFB7913700C37BD465DF8F7
:100E7000047B70473538024080B485B000AF78609D
:100E80000023FB60094B9B68FB60FB6823F00303B6
:100E9000FB60FA687B681343FB60044AFB6893605D
:100EA0001437BD465DF8047B704700BF0038024030
:100EB00080B485B000AF78600023FB607B6803F4EA
:100EC0004033B3F5403F0FD1114B1B68FB60FB680B
:100ED00023F0C043FB607B6803F0C043FA68134310
:100EE000FB600B4AFB681360094A094B5B6B23F4F8
:100EF000403353630649064B5A6B7B6803F4403317
:100F000013434B631437BD465DF8047B704700BF45
:100F10000038024080B483B000AF0346FB71044A3E
:100F2000FB7913600C37BD465DF8047B704700BF4A
:100F3000D806474280B483B000AF0346FB71044A31
:100F4000FB7913600C37BD465DF8047B704700BF2A
:100F5000DC06474280B483B000AF78600B46FB707C
:100F6000FB78002B06D00949084BDA697B681343EC
:100F7000CB6106E00549054BDA697B68DB4313402A
:100F8000CB610C37BD465DF8047B704700380240EA
:100F900080B483B000AF78600B46FB70FB78002B09
:100FA00006D00949084B1A6A7B6813430B6206E0B6
:100FB0000549054B1A6A7B68DB4313400B620C370B
:100FC000BD465DF8047B70470038024080B483B0B2
:100FD00000AF78600B46FB70FB78002B06D0094908
:100FE000084B5A6A7B6813434B6206E00549054B80
:100FF0005A6A7B68DB4313404B620C37BD465DF891
:10100000047B70470038024080B487B000AF0346CD
:10101000FB710023FB6000237B610023FB74FB79E1
:101020005B09DBB2FB60FB68012B03D10F4B1B6834
:101030007B6102E00D4B5B6B7B61FB7903F01F036F
:10104000FB60FB687A6922FA03F303F00103002BCB
:1010500002D00123FB7401E00023FB74FB7C1846E3
:101060001C37BD465DF8047B704700BF0038024066
:1010700080B500AF144A144B1B6843F480731360AF
:101080001149114B9A68114B13408B600E4A0E4B5D
:101090001B6823F0885323F0011313600A4A0A4B9C
:1010A0001B6823F480231360074A074B9B6823F4D3
:1010B0007D039360044B0022DA6000F00BF8044BD0
:1010C0004FF000629A6080BD003802400CC0FF887B
:1010D00000ED00E080B483B000AF00237B6000230C
:1010E0003B60414A404B1B6843F4803313603E4BE6
:1010F0001B6803F400333B607B6801337B603B6813
:10110000002B03D17B68B3F5A06FF0D1364B1B6881
:1011100003F40033002B02D001233B6001E00023E5
:101120003B603B68012B5AD1304A304B1B6843F07F
:10113000040313602D4A2D4B1B6843F00203136018
:101140002A4A2A4B1B6843F001031360264A264BA8
:101150005B6A43F080535362254B4FF400621A6080
:1011600000BF234B5B6803F01003002BF9D11E4A2C
:101170001D4B9B6893601C4A1B4B9B6893601A4AEB
:10118000194B9B689360184A174B9B6823F47D03A7
:101190009360154A144B9B6843F411039360124A01
:1011A000114B1B6843F08073136000BF0E4B1B682C
:1011B00003F00073002BF9D00B4A0B4B9B6823F014
:1011C00003039360084A084B9B6843F00303936052
:1011D00000BF054B9B6803F00C030C2BF9D10C37B7
:1011E000BD465DF8047B704700380240003C024079
:1011F0000070004080B500AF00F0B4F900F0CCF909
:101200000346002B04D003480A21062200F0EAF826
:10121000F4E700BF0016000880B582B000AF786028
:10122000134A134B5B6823F07F7353601048104BD5
:101230005A687B6819687B685B680B43134343609B
:1012400000F028F80A4A0A4B1B6823F07E0313605B
:101250000748074B1A687B6899687B68DB68194305
:101260007B681B690B43134303600837BD4680BD91
:101270000024004080B483B000AF0346FB71044AF1
:10128000FB7913600C37BD465DF8047B704700BFE7
:101290000080044280B400AF00BF054B9B6803F0A0
:1012A0002003002BF9D0BD465DF8047B704700BFDA
:1012B0000024004080B483B000AF0346FB71044AB1
:1012C000FB7913600C37BD465DF8047B704700BFA7
:1012D0001C80044280B483B000AF7860084A084B99
:1012E0005B6823F0700353600549054B5A687B68BF
:1012F00013434B600C37BD465DF8047B704700BF5D
:101300000024004080B483B000AF7860084A084BE6
:101310005B6823F4607353600549054B5A687B682A
:1013200013434B600C37BD465DF8047B704700BF2C
:101330000024004080B483B000AF78603960094A6F
:10134000084B5B6823F4783353600648054B5A68B2
:1013500079683B680B43134343600C37BD465DF827
:10136000047B70470024004080B483B000AF7860F5
:10137000084A084B5B6823F4E05353600549054B6A
:101380005A687B6813434B600C37BD465DF8047B9D
:10139000704700BF0024004080B400AF034B01221F
:1013A0001A60BD465DF8047B704700BF08810442A7
:1013B00080B485B000AF78600023FB73084B9A6857
:1013C0007B681340002B02D00123FB7301E0002354
:1013D000FB73FB7B18461437BD465DF8047B7047F2
:1013E0000024004080B584B000AFF860B9607A6036
:1013F00000F010F800F038F8FEF7ECFFFEF7AEFF53
:10140000BB689AB27B689BB2F86811461A46FFF730
:101410001DFCFEE780B500AF0120FFF70BFD00BF0C
:101420002120FFF7F1FD0346002BF9D00120FFF743
:1014300023FD4FF44040FFF7E1FC0020FFF7CCFC18
:101440003120FFF7E1FD0346002B00D0FEE7054801
:101450000121FFF7BBFD40F201200121FFF798FDBC
:1014600080BD00BF0002001080B500AF0120FEF774
:1014700065FF0120FFF75EFD0020FFF75BFD012007
:10148000FFF7E8FC00BF4920FFF7BEFD0346002B35
:10149000F9D00120FFF73EFD4FF48030FFF708FD43
:1014A00080BD00BF80B400AFBD465DF8047B7047CF
:1014B00080B400AFFEE700BF80B400AFFEE700BF1E
:1014C00080B400AFFEE700BF80B400AFFEE700BF0E
:1014D00080B400AFBD465DF8047B704780B400AFB8
:1014E000BD465DF8047B704780B400AFBD465DF833
:1014F000047B704780B400AFBD465DF8047B704745
:1015000080B582B000AF124B7B60124B3B6007E0AE
:101510003B681A1D3A607A68111D796012681A607A
:101520003B680D4A9342F3D30C4B3B6004E03B68AD
:101530001A1D3A6000221A603B68094A9342F6D3AA
:10154000FFF796FDFFF756FE0837BD4680BD00BF8A
:1015500018160008000000200000002000000020F5
:101560000800002080B582B000AF01200121FFF704
:10157000F1FC3B461846FEF763FE01233B60002367
:101580003B713B4603481946FEF7C6FD0837BD468A
:1015900080BD00BF0000024080B500AF05480121BA
:1015A000FEF768FE0346002B14BF01230023DBB2C5
:1015B000184680BD0000024000FE1467001D14475D
:1015C000009D009C003F00FA140000534198001950
:1015D000485A095A005F00FC015F01FC00AF140487
:1015E000005BC018815AC9005800C005005F004266
:1015F00000F5006700EA00AF00BF004600FF00EF03
:1016000054484553452041524D53204F46204D49A3
:081610004E45202D2D2D200078
:0400000508000000EF
:00000001FF
